{
  "contractName": "UserProfileContract",
  "abi": [
    {
      "constant": true,
      "inputs": [
        {
          "name": "",
          "type": "uint256"
        }
      ],
      "name": "keys",
      "outputs": [
        {
          "name": "",
          "type": "string"
        }
      ],
      "payable": false,
      "stateMutability": "view",
      "type": "function"
    },
    {
      "constant": true,
      "inputs": [],
      "name": "owner",
      "outputs": [
        {
          "name": "",
          "type": "address"
        }
      ],
      "payable": false,
      "stateMutability": "view",
      "type": "function"
    },
    {
      "constant": true,
      "inputs": [],
      "name": "infoCount",
      "outputs": [
        {
          "name": "",
          "type": "uint8"
        }
      ],
      "payable": false,
      "stateMutability": "view",
      "type": "function"
    },
    {
      "inputs": [],
      "payable": false,
      "stateMutability": "nonpayable",
      "type": "constructor"
    },
    {
      "constant": true,
      "inputs": [],
      "name": "getKeys",
      "outputs": [
        {
          "name": "",
          "type": "string"
        }
      ],
      "payable": false,
      "stateMutability": "view",
      "type": "function"
    },
    {
      "constant": false,
      "inputs": [
        {
          "name": "_key",
          "type": "string"
        },
        {
          "name": "_value",
          "type": "bytes"
        }
      ],
      "name": "setInfo",
      "outputs": [],
      "payable": false,
      "stateMutability": "nonpayable",
      "type": "function"
    },
    {
      "constant": true,
      "inputs": [
        {
          "name": "_key",
          "type": "string"
        }
      ],
      "name": "getInfo",
      "outputs": [
        {
          "name": "_value",
          "type": "bytes"
        }
      ],
      "payable": false,
      "stateMutability": "view",
      "type": "function"
    }
  ],
  "bytecode": "0x6060604052341561000f57600080fd5b336000806101000a81548173ffffffffffffffffffffffffffffffffffffffff021916908373ffffffffffffffffffffffffffffffffffffffff1602179055506000606560006101000a81548160ff021916908360ff160217905550610d218061007a6000396000f300606060405260043610610078576000357c0100000000000000000000000000000000000000000000000000000000900463ffffffff1680630cb6aaf11461007d5780632150c518146101195780632501e6d8146101a75780637ee005ab146102475780638da5cb5b1461031d578063ff296eaa14610372575b600080fd5b341561008857600080fd5b61009e60048080359060200190919050506103a1565b6040518080602001828103825283818151815260200191508051906020019080838360005b838110156100de5780820151818401526020810190506100c3565b50505050905090810190601f16801561010b5780820380516001836020036101000a031916815260200191505b509250505060405180910390f35b341561012457600080fd5b61012c610453565b6040518080602001828103825283818151815260200191508051906020019080838360005b8381101561016c578082015181840152602081019050610151565b50505050905090810190601f1680156101995780820380516001836020036101000a031916815260200191505b509250505060405180910390f35b34156101b257600080fd5b610245600480803590602001908201803590602001908080601f0160208091040260200160405190810160405280939291908181526020018383808284378201915050505050509190803590602001908201803590602001908080601f01602080910402602001604051908101604052809392919081815260200183838082843782019150505050505091905050610590565b005b341561025257600080fd5b6102a2600480803590602001908201803590602001908080601f0160208091040260200160405190810160405280939291908181526020018383808284378201915050505050509190505061068e565b6040518080602001828103825283818151815260200191508051906020019080838360005b838110156102e25780820151818401526020810190506102c7565b50505050905090810190601f16801561030f5780820380516001836020036101000a031916815260200191505b509250505060405180910390f35b341561032857600080fd5b6103306107a1565b604051808273ffffffffffffffffffffffffffffffffffffffff1673ffffffffffffffffffffffffffffffffffffffff16815260200191505060405180910390f35b341561037d57600080fd5b6103856107c6565b604051808260ff1660ff16815260200191505060405180910390f35b6001816064811015156103b057fe5b016000915090508054600181600116156101000203166002900480601f01602080910402602001604051908101604052809291908181526020018280546001816001161561010002031660029004801561044b5780601f106104205761010080835404028352916020019161044b565b820191906000526020600020905b81548152906001019060200180831161042e57829003601f168201915b505050505081565b61045b610ba8565b610463610ba8565b600080600090505b606560009054906101000a900460ff1660ff168110156105875760018160648110151561049457fe5b0191506105786104d9846040805190810160405280600181526020017f2c000000000000000000000000000000000000000000000000000000000000008152506107d9565b838054600181600116156101000203166002900480601f01602080910402602001604051908101604052809291908181526020018280546001816001161561010002031660029004801561056e5780601f106105435761010080835404028352916020019161056e565b820191906000526020600020905b81548152906001019060200180831161055157829003601f168201915b50505050506107d9565b9250808060010191505061046b565b82935050505090565b600061059b836109b9565b905080151561060957826001606560009054906101000a900460ff1660ff166064811015156105c657fe5b0190805190602001906105da929190610bbc565b506001606560009054906101000a900460ff1601606560006101000a81548160ff021916908360ff1602179055505b816066846040518082805190602001908083835b602083101515610642578051825260208201915060208101905060208303925061061d565b6001836020036101000a03801982511681845116808217855250505050505090500191505090815260200160405180910390209080519060200190610688929190610c3c565b50505050565b610696610cbc565b6066826040518082805190602001908083835b6020831015156106ce57805182526020820191506020810190506020830392506106a9565b6001836020036101000a03801982511681845116808217855250505050505090500191505090815260200160405180910390208054600181600116156101000203166002900480601f0160208091040260200160405190810160405280929190818152602001828054600181600116156101000203166002900480156107955780601f1061076a57610100808354040283529160200191610795565b820191906000526020600020905b81548152906001019060200180831161077857829003601f168201915b50505050509050919050565b6000809054906101000a900473ffffffffffffffffffffffffffffffffffffffff1681565b606560009054906101000a900460ff1681565b6107e1610ba8565b6107e9610cbc565b6107f1610cbc565b6107f9610ba8565b610801610cbc565b600080889550879450845186510160405180591061081c5750595b9080825280601f01601f1916602001820160405250935083925060009150600090505b85518110156108f257858181518110151561085657fe5b9060200101517f010000000000000000000000000000000000000000000000000000000000000090047f01000000000000000000000000000000000000000000000000000000000000000283838060010194508151811015156108b557fe5b9060200101907effffffffffffffffffffffffffffffffffffffffffffffffffffffffffffff1916908160001a905350808060010191505061083f565b600090505b84518110156109aa57848181518110151561090e57fe5b9060200101517f010000000000000000000000000000000000000000000000000000000000000090047f010000000000000000000000000000000000000000000000000000000000000002838380600101945081518110151561096d57fe5b9060200101907effffffffffffffffffffffffffffffffffffffffffffffffffffffffffffff1916908160001a90535080806001019150506108f7565b82965050505050505092915050565b60008060008090505b606560009054906101000a900460ff1660ff16811015610a13576001816064811015156109eb57fe5b0191506109f88285610a1f565b15610a065760019250610a18565b80806001019150506109c2565b600092505b5050919050565b600080610a2a610cbc565b6000859250849150815183805460018160011615610100020316600290049050141515610a5a5760009350610b9f565b600090505b82805460018160011615610100020316600290049050811015610b9a578181815181101515610a8a57fe5b9060200101517f010000000000000000000000000000000000000000000000000000000000000090047f0100000000000000000000000000000000000000000000000000000000000000027effffffffffffffffffffffffffffffffffffffffffffffffffffffffffffff191683828154600181600116156101000203166002900481101515610b1657fe5b815460011615610b355790600052602060002090602091828204019190065b9054901a7f0100000000000000000000000000000000000000000000000000000000000000027effffffffffffffffffffffffffffffffffffffffffffffffffffffffffffff1916141515610b8d5760009350610b9f565b8080600101915050610a5f565b600193505b50505092915050565b602060405190810160405280600081525090565b828054600181600116156101000203166002900490600052602060002090601f016020900481019282601f10610bfd57805160ff1916838001178555610c2b565b82800160010185558215610c2b579182015b82811115610c2a578251825591602001919060010190610c0f565b5b509050610c389190610cd0565b5090565b828054600181600116156101000203166002900490600052602060002090601f016020900481019282601f10610c7d57805160ff1916838001178555610cab565b82800160010185558215610cab579182015b82811115610caa578251825591602001919060010190610c8f565b5b509050610cb89190610cd0565b5090565b602060405190810160405280600081525090565b610cf291905b80821115610cee576000816000905550600101610cd6565b5090565b905600a165627a7a72305820c4302926e2a815dbb39f4641ea82aff9abc92daa4d5a422b60bd3f18ee21fcdf0029",
  "source": "// personal data-sharing platform Source code\n\npragma solidity ^0.4.19;\n\n/**\n * @title UserProfileContract\n * @dev The UserProfileContract will include the personal information.\n */\ncontract UserProfileContract{\n    //public datatype\n    address public owner;//record the owner of the contract\n    string[100] public keys;//record the keys of recordMapping\n    uint8 public infoCount;//record the number of file stored\n\n    //mapping\n   mapping (string => bytes) InfoMapping;//store the personal data\n    /**\n      * @dev Throws if caldled by any account other than the owner.\n    */\n    modifier onlyOwner() {\n        require(msg.sender == owner);\n        _;\n    }\n\n    //concat the keys\n    function strConcat(string _a, string _b) internal returns (string){\n\t    bytes memory _ba = bytes(_a);\n\t    bytes memory _bb = bytes(_b);\n\t    string memory ab = new string(_ba.length + _bb.length);\n\t    bytes memory bab = bytes(ab);\n\t    uint k = 0;\n\t    for (uint i = 0; i < _ba.length; i++) bab[k++] = _ba[i];\n\t    for (i = 0; i < _bb.length; i++) bab[k++] = _bb[i];\n\t    return string(bab);\n    }\n\n    //is the string equal\n    function stringsEqual(string storage  _a, string memory  _b) internal returns (bool) {\n\t\tbytes storage  a = bytes(_a);\n\t\tbytes memory b = bytes(_b);\n\t\tif (a.length != b.length)\n\t\t\treturn false;\n\t\t// @todo unroll this loop\n\t\tfor (uint i = 0; i < a.length; i ++)\n\t\t\tif (a[i] != b[i])\n\t\t\t\treturn false;\n\t\treturn true;\n\t  }\n\n    //is the key existed\n    function isExisted(string _key) internal returns (bool){\n        string storage key;\n        for(uint i=0;i<infoCount;i++){\n            key=keys[i];\n\t         if(stringsEqual(key,_key)) return true;\n\t     }\n\t     return false;\n    }\n\n    //constructior function\n    function UserProfileContract(){\n        owner=msg.sender;\n        infoCount=0;\n    }\n\n\t//return all of the keys of record mapping\n    function getKeys() public constant returns (string) {\n        string memory results;\n        string key;\n        for(uint i = 0; i < infoCount; i++){\n            key=keys[i];\n            results = strConcat(strConcat(results,\",\"),key);\n        }\n        return results;\n    }\n\n    //write the personal data\n    function setInfo(string _key, bytes _value){\n  \t    bool existed;\n  \t    existed=isExisted(_key);\n  \t    if(!existed){\n              keys[infoCount]=_key;\n              infoCount=infoCount+1;\n  \t     }\n  \t    InfoMapping[_key]=_value;\n  \t}\n\n  \t//get the data stored in record mapping\n    function getInfo(string _key) public constant returns(bytes _value){\n        _value=InfoMapping[_key];\n    }\n}\n",
  "sourcePath": "/Users/terry/Desktop/election/contracts/UserProfileContract.sol",
  "compiler": {
    "name": "solc",
    "version": "0.4.19+commit.c4cbbb05.Emscripten.clang"
  },
  "schemaVersion": "2.0.0",
  "updatedAt": "2018-08-29T04:49:19.642Z"
}